:1000000045C0000060C000005EC000005CC0000091
:100010005AC0000058C0000056C0000054C0000084
:1000200052C0000050C000004EC000004CC0000094
:100030004AC0000048C0000046C0000044C00000A4
:1000400042C0000040C000003EC000003CC00000B4
:100050003AC0000038C0000036C0000034C00000C4
:1000600032C0000030C000002EC000002CC00000D4
:100070002AC0000028C0000026C0000024C00000E4
:1000800022C0000020C000001EC0000011241FBEBE
:10009000CFEFD0E4DEBFCDBF11E0A0E0B1E0EEE3F2
:1000A000F1E000E00BBF02C007900D92AC30B10749
:1000B000D9F721E0ACE0B1E001C01D92A231B20756
:1000C000E1F702D03AC09CCF80E091E006D08FEFFC
:1000D00084B915B88FE085B9FECF0F931F93CF93E6
:1000E000DF93E0910E01F0910F01238121FF1BC0EE
:1000F0008C01D0E0C0E0F80181918F0160910E0188
:1001000070910F01DB011896ED91FC9119978823EE
:1001100031F00995892B79F3DFEFCFEFECCF8AE04F
:100120000995892B19F08FEF9FEF02C08D2F9C2F1F
:0E013000DF91CF911F910F910895F894FFCFAA
:0C013E0048656C6C6F20576F726C640099
:00000001FF
